:020000040800F2
:100000003814012061020008D1230008CF1D000828
:10001000C1220008AB080008BD3000080000000045
:10002000000000000000000000000000A101000826
:10003000810D000800000000FD010008ED29000806
:100040007B0200087B0200087B0200087B0200089C
:100050007B0200087B020008111B00087B020008DD
:100060007B0200087B0200087B0200087B0200087C
:10007000ED0800087B0200083D0900087B0200082B
:100080006D090008BD0900087B0200087B0200081A
:100090007B0200087B0200087B0200087B0200084C
:1000A0007B0200087B0200087B0200087B0200083C
:1000B0007B0200087B0200087B0200087B0200082C
:1000C0007B0200087B0200087B0200087B0200081C
:1000D0007B020008DD2A0008492C0008F52C0008E6
:1000E000951B00087B0200087B0200087B020008C9
:1000F0007B0200087B0200087B0200087B020008EC
:100100007B0200087B0200087B0200087B020008DB
:100110007B0200087B0200087B0200087B020008CB
:100120007B020008050A00087B0200087B02000829
:100130007B020008F91100087B0200087B0200081E
:100140007B0200087B0200087B0200087B0200089B
:100150007B0200087B020008550A0008A12D000858
:100160007B0200087B0200087B0200087B0200087B
:100170007B0200087B0200087B0200087B0200086B
:100180007B0200087B020008DFF810D000F0C2FA02
:1001900000480047A9750008AFF30080381401201B
:1001A0002C4B19680868B0E8F04F80F30988BFF35A
:1001B0006F8F4FF0000080F311887047000000003F
:1001C00008480068006880F308884FF0000080F35A
:1001D000148862B661B6BFF34F8FBFF36F8F00DF35
:1001E00000BF00BF08ED00E0DFF80C00016841F43B
:1001F00070010160704700BF88ED00E0EFF30980F7
:10020000BFF36F8F134B1A681EF0100F08BF20ED5D
:10021000108A20E9F04F106009B44FF0BF0080F35E
:100220001188BFF34F8FBFF36F8F10F01FFB4FF09C
:10023000000080F3118809BC19680868B0E8F04F25
:100240001EF0100F08BFB0EC108A80F30988BFF3CE
:100250006F8F704730000020EFF30580704700007B
:100260000648804706480047FEE7FEE7FEE7FEE750
:10027000FEE7FEE7FEE7FEE7FEE7FEE7212A0008CD
:100280008901000810B5431A934209D283188818CF
:1002900003E010F8011D03F8011D521EF9D210BD34
:1002A00040EA01039B0703D009E008C9121F08C0F8
:1002B000042AFAD203E011F8013B00F8013B521E78
:1002C000F9D210BDD2B201E000F8012B491EFBD2D9
:1002D00070470022F6E710B513460A460446194651
:1002E000FFF7F0FF204610BD30B50446002003465E
:1002F00000E05B1C934203D2E05CCD5C401BF8D075
:1003000030BD034611F8012B00F8012B002AF9D16A
:100310001846704730B50B460146002020220124C4
:1003200009E021FA02F59D4205D303FA02F5491BC3
:1003300004FA02F52844151EA2F10102F1DC30BDD9
:100340002DE9F05F0546002092469B46884606460A
:10035000814640241BE0284641464746224600F09D
:10036000FAF953465A46C01A914110D3114618461D
:10037000224600F0E1F92D1A67EB01084F462246AC
:100380000120002100F0D8F917EB00094E41201E92
:10039000A4F10104DFDC484631462A464346BDE865
:1003A000F09F2DE9FE4F804681EA0300C00F0C4606
:1003B000009021F0004123F00045B8EB0200A94174
:1003C00005D24046214690461C460B46024623F085
:1003D0000040104347D0270DC7F30A00C3F30A516A
:1003E0000290401A019040286BDAC3F3130040F4E6
:1003F000801B0098924620B10023D2EB030A63EBE6
:100400000B0B01985946C0F14002504600F094F998
:1004100006460D4650465946019A00F0ACF910EBDD
:1004200008006141002487EA115284EAE7731A4305
:1004300040D0009A62B3019A012A4FEA075215DCB4
:10044000001B61EB02014FF0004202EA0752CDE9C6
:100450000042001C41F5801132462B4600F0ACF9F9
:1004600003B0BDE8F08F40462146F9E7001B61EB81
:100470000201001C41F5801300185B412018A2F511
:10048000001747EB030140EAD570B6196D4111E042
:100490006D084FEA360645EAC0754FEA0752001B61
:1004A00061EB0201001C41F5801149084FEA300060
:1004B0000019514132462B4603B0BDE8F04F00F021
:1004C0006CB90098012240000023D0EB020263EBDC
:1004D000E073009821464FEAE074B8EB000061EB4E
:1004E0000401E9E783F000435BE781F0004158E74E
:1004F0002DE9FE4F81EA030404F0004421F000419D
:1005000000944FF0000B23F0004350EA01045ED04A
:1005100052EA03045BD0C3F30A54C1F30A552C44D6
:10052000A4F2F3340194A0FB0254C1F3130141F48B
:100530008011C3F3130343F4801301FB024400FB57
:10054000034E840A970A44EA815447EA8357A4FB7E
:10055000076802958D0A05FB07854FEA932C04FB7B
:100560000C542705029D4FEA065847EA1637B5EBAB
:1005700008056EEB070C870E920E47EA811742EAD8
:100580008312A7FB0201B6EB0B0164EB00042B0DF9
:1005900043EA0C335E1844EB1C50DA465146E7FB45
:1005A0000201C5F313044FEA0B3343EA14534FEA35
:1005B0000432019C43EA0603A4F10C040294009C5B
:1005C000CDE900B400F0F8F803B0BDE8F08F0020EA
:1005D0000146F9E72DE9F04D81EA030404F0004BF0
:1005E00021F0004514464FF0000A23F0004150EA84
:1005F000050220D054EA01021DD0C5F30A57024675
:10060000C5F31303C1F31300C1F30A5640F4801578
:1006100043F48013A7EB0608101BD64608F2FD38FA
:1006200073EB050002D308F1010801E092185B4169
:10063000B8F1000F03DA00200146BDE8F08D00207C
:100640004FF48011064684460EE0171B73EB050736
:1006500005D3121B63EB050306434CEA010C490862
:100660004FEA300092185B4150EA0107EDD152EA9F
:10067000030012D082EA040083EA0501084305D092
:10068000101BAB4106D20122002306E000224FF0EE
:10069000004302E06FF0010253101AEB06004CEB2E
:1006A000085110EB0A0041EB0B01BDE8F04D00F0E2
:1006B00074B8C1F30A52C1F3130140F2FF3341F49D
:1006C00080119A4202DA00200146704740F233431B
:1006D0009A42A2F2334202DC524200F03CB800F0EF
:1006E0002BB8000030B5041E71F1000404DB4FF09C
:1006F0000044404264EB0101141E73F1000405DB69
:100700001C464FF00043524263EB0403994208BF7A
:10071000904230BD064C074D06E0E06840F0010312
:1007200094E8070098471034AC42F6D3FFF730FD49
:1007300098210108B8210108202A04DB203A00FA98
:1007400002F1002070479140C2F1200320FA03F328
:10075000194390407047202A04DB203A21FA02F026
:100760000021704721FA02F3D040C2F120029140EB
:10077000084319467047202A06DBCB17203A41FA76
:1007800002F043EAE07306E041FA02F3D040C2F11E
:100790002002914008431946704710B5141E73F1AA
:1007A000000408DA401C41F1000192185B411A4331
:1007B00001D120F0010010BD2DE9F04D92469B467D
:1007C00011B1B1FA81F202E0B0FA80F22032904623
:1007D000FFF7B2FF04460F4640EA0A0041EA0B0168
:1007E00053465A46084313D0114653EA010019D024
:1007F000C8F140025046FFF7AEFF05460E46504690
:1008000059464246FFF798FF084305D0012004E00F
:1008100020463946BDE8F08D0020054346EAE076E3
:100820002C4337430A986305E40AA0EB0800002232
:10083000FD0A44EA47540A3002D500200146E9E7A0
:10084000010510196941DDE9084500196941BDE854
:10085000F04DA2E770B58C1810F8015B15F0070396
:1008600001D110F8013B2A1106D110F8012B03E049
:1008700010F8016B01F8016B5B1EF9D12B0705D451
:100880000023521E0DD401F8013BFAE710F8013B9A
:10089000CB1A921C03E013F8015B01F8015B521EB6
:1008A000F9D5A142D8D3002070BD00BFFEE70000FB
:1008B00010B510F0DFF8044908600846006810B968
:1008C00002A002F0ADFC10BD80010020E5889BE590
:1008D000BBBAE4BA8BE4BBB6E6A087E5BF97E7BB3B
:1008E00084E5A4B1E8B4A55C6E00000010B50F4922
:1008F0000F4800F0D7F9B8B100210D4800F0F6F824
:100900000B4800F0CBF9C0F580600A4908800A491D
:10091000074800F0B7F84FF48061054800F02EFA60
:100920000121034800F0E2F810BD000000080010AB
:1009300028600240B4110020400F001010B54FF0A5
:10094000C051094800F0AEF960B10021064800F03E
:10095000CDF84FF0C051044800F094F8002102484F
:1009600000F0C4F810BD00005860024010B50F49F7
:100970000F4800F097F9B8B100210D4800F0B6F823
:100980000B4800F08BF9C0F580600A4908800A49DD
:10099000074800F077F84FF48061054800F0EEF961
:1009A0000121034800F0A2F810BD0000000800205B
:1009B00088600240B2090020400F002010B50AA054
:1009C00002F02EFC0D490E4800F06CF958B10021E0
:1009D0000B4800F08BF80949094800F053F8002152
:1009E000074800F083F810BD0A555341525432B7FE
:1009F000A2CBCDCDEAB3C90A000000000000202040
:100A0000A060024010B50F490F4800F04BF9B8B193
:100A100000210D4800F06AF80B4800F03FF9C0F5DE
:100A200080600A4908800A49074800F02BF84FF413
:100A30008061054800F0A2F90121034800F056F852
:100A400010BD00000008001028640240B619002004
:100A5000400F001010B50949094800F023F958B1BA
:100A60000021074800F042F80449054800F00AF860
:100A70000021034800F03AF810BD000000002020DB
:100A8000A06402400246094B9A4201D2084801E0A4
:100A90000648103801F000531BB1064B0B40C360F1
:100AA00002E0044B0B40836070470000106402407A
:100AB000006002407D0F7D0F0246094B9A4201D231
:100AC000084801E00648103801F000531BB1064BFE
:100AD0000B40C36002E0044B0B4083607047000092
:100AE00010640240006002407D0F7D0F21B102685A
:100AF00042F00102026003E0026822F0010202609B
:100B000070470000016821F00101016000210160CF
:100B100041608160C1600161212141614A4988428F
:100B200004D13D21484A103A91608CE04649183181
:100B3000884205D14FF47461434A103A916082E0D3
:100B400041493031884205D14FF474113E4A103A80
:100B5000916078E03C494831884205D14FF074619A
:100B6000394A103A91606EE037496031884204D1C9
:100B70003649354A103AD16065E0334978318842C8
:100B800004D13349304A103AD1605CE02E499031AB
:100B9000884204D12F492C4A103AD16053E02A49A7
:100BA000A831884205D14FF03D51274A103AD16013
:100BB00049E02949884204D13D21274A083A116079
:100BC00041E025491831884205D14FF47461224A29
:100BD000083A116037E020493031884205D14FF49E
:100BE00074111D4A083A11602DE01B4948318842B2
:100BF00005D14FF07461184A083A116023E0164994
:100C00006031884204D11149134A121F11601AE061
:100C100011497831884204D10D490F4A121F1160E1
:100C200011E00D499031884204D10A490A4A121F45
:100C3000116008E00849A831884204D14FF03D51C5
:100C4000054A121F11607047106002403D000020ED
:100C5000400F002000003D201064024070B50446A3
:100C60000D4600212046FFF741FF00BF204600F05F
:100C70000BF80028FAD12946204600F07FF8012120
:100C80002046FFF733FF70BD014600200A6802F0DE
:100C900001020AB1012000E00020704701464868C7
:100CA00080B2704730B503460A46002000240B4D41
:100CB000AB4201D20A4901E00849103902F000555F
:100CC0000DB14C6800E00C68064D2C4004EA0205AA
:100CD0000DB1012000E0002030BD00001064024092
:100CE000006002407D0F7D0F10B501F080034BB115
:100CF00022B1436943F08003436103E0436923F079
:100D00008003436180290BD02AB1036801F01E04DF
:100D10002343036004E0036801F01E04A34303605F
:100D200010BD000010B500220268134B1A40CC68B9
:100D30000B6823434C6923438C692343CC692343C9
:100D40000C6A23434C6A23438C6A23434C6B234332
:100D50008C6B23431A430260426922F00702D1E9F7
:100D60000B3423431A4342610B6943604B68836031
:100D70008B68C36010BD00003F801CF0416070476D
:100D80007047000010B500F0E9F800F09FFC00F09B
:100D900007FC0121002000F011FD00F0040028B143
:100DA0000348006840F010000149086010BD0000D1
:100DB0009401002001494861704700000090024002
:100DC00029B1064AD2690243044BDA6104E0034ABE
:100DD000D2698243014BDA61704700000090024003
:100DE00030B10749896941F00201054A916105E086
:100DF0000349896921F00201014A916170470000AD
:100E00000090024070B50C4613460021124D286038
:100E100000BF18E000EB41124FF00045156044F2AE
:100E2000F4555560C1EBC11505EB450504EB85058F
:100E300095605D1E8D4204D900EB41152035D560CB
:100E400000E0D060491C9942E4D3044DE860044DB1
:100E5000044E356070BD00009400002000900240F8
:100E6000749400209800002021B1426822F00042D2
:100E7000426003E0426842F0004242607047000076
:100E800030B10749896941F40051054A916105E093
:100E90000349896921F40051014A916170470000BA
:100EA0000090024030B50C46134600210F4D2860DB
:100EB00000BF15E000EB41124FF480151560C1EB47
:100EC000C11505EB450504EB850595605D1E8D425A
:100ED00004D900EB41152035D56000E0D060491CF5
:100EE0009942E7D3024D286130BD000090000020F8
:100EF0000090024002680A430260704710B5012169
:100F0000480601F0BDFA00214FF0007001F0B8FA78
:100F100010BD01B581B0002000900198009002E062
:100F20000098401E009000980028F9D10CBD0000E8
:100F300008B5002000900848806940F480100649F8
:100F400088610846806900904FF6FF70FFF7E1FF67
:100F500001490098886108BD009002401CB501213C
:100F600040F2471001F07CFA0121880301F0A8FA51
:100F7000012001F09FFC0220009003208DF8050065
:100F800001208DF8040000208DF806008DF8070080
:100F90006946424800F0ACFE0221404800F013FFD1
:100FA0006FF07F40FFF7B5FF02213C4800F00DFFD6
:100FB0006FF07F40FFF7ADFF0420009003208DF815
:100FC000050002208DF8040000208DF806008DF841
:100FD00007006946324800F08BFE0B2202213048A0
:100FE00000F0CEFE0220009069462E4800F080FE00
:100FF0000B2201212B4800F0C3FE0220009069461D
:10100000274800F075FE0B220121254800F0B8FEAC
:10101000802000906946224800F06AFE0B220721DA
:101020001F4800F0ADFE1020009069461D4800F0FA
:101030005FFE0B2204211B4800F0A2FE202000903E
:101040006946184800F054FE0B220521154800F0AF
:1010500097FE4FF4006000906946134800F048FE88
:101060000B221146104800F08BFE4FF40050009008
:1010700069460E4800F03CFE0B220D210B4800F0A3
:101080007FFE4FF4804000906946084800F030FE33
:101090000B220E21054800F073FE1CBD002002400B
:1010A0000000024000080240000402400018024014
:1010B00001460020034A52690A400AB1012000E0BB
:1010C000002070470090024000200449096801F0A8
:1010D000010109B1012000E00020704700900240AA
:1010E0000FB50021019102910391009170E00099E8
:1010F000491C00913E490968096801F40071A1B1D9
:101100003B490968096801F4807171B93849096877
:10111000384A126811600121364A126891603449D8
:101120000968C968324A116052E0314909680968A2
:1011300001F4807191B92E490968096801F40071C0
:1011400061B92C4909688968491C2A4A126891606A
:1011500027490968C968264A116039E024490968A5
:10116000244A12685160234909688968491C214A48
:10117000126891601F4909688968012904D11C49D6
:1011800009681C4A12681160194909680968C1F3A5
:101190000D41091F0191174909688968012905D97D
:1011A0001449096809688968029103E010490968CF
:1011B000896802910F490968096803910C49096817
:1011C000C9680B4A116001A90EC980E80E000FBD65
:1011D00007490968096801F0004111B9009905291A
:1011E00085D301A90EC980E80E0000BFEFE700001B
:1011F000940000209800002008B5002000904020B6
:10120000FFF756FF012804D169460C4800680FF02B
:10121000A1FF4020FFF7CEFD4FF48030FFF7CAFD5D
:10122000009848B1009838B14FF0805004490860E8
:10123000BFF34F8FBFF36F8F08BD00008C010020FC
:1012400004ED00E02DE9F04188B004460F464FF070
:101250000008002500200790B94E0290012001905F
:10126000B848056925F01C0503A801F039F9049E6A
:10127000B548864205D3B548864202D245F00805F6
:101280001AE0B248864205D3AD48864202D245F004
:101290000C0511E0AA48864203D3AD48864200D22D
:1012A0000AE0AB48864205D3AA48864202D245F0FE
:1012B000040501E045F01005A24805614FF4004225
:1012C0000021384600F034FB10B9002001906AE09C
:1012D000A148FFF71EFE2068002850D000BF0298EA
:1012E000401C02900121384600F068FA00F004002A
:1012F00018B99A4902988842F1D3984902988842CD
:1013000002D1002001904EE0002002904FF4805264
:101310000021384600F00CFB08B90020019000BF06
:101320000298401C02900121384600F047FA00F074
:10133000200018B9894902988842F1D38749029858
:10134000884202D1002001902DE00020029010215F
:10135000384600F033FA804608F0040018B14FF424
:101360000060206201E00020206208F0020010B15D
:101370000020606116E04FF48040606112E0206A56
:10138000C0F3CF006169C1F34F0140EA01020021BF
:10139000384600F0CDFA08B9002001906FF07F4088
:1013A000FFF7B7FD00BF019820B94FF4006020623D
:1013B000C00060616348056869480540D4E90101DF
:1013C0000843E16808432169084361690843A1694A
:1013D0000843E1690843216A0843616A0843A16A36
:1013E0000843E16A0843216B0843616B08430543E6
:1013F0005448056005684FF6FF70FFF78AFD5148B5
:101400000560D4E90E010843216C0843616C084370
:10141000A16C0843E16C0843216D0843616D0843EA
:1014200048494860084645684FF6FF70FFF771FD70
:10143000444845604349A06D8860E06DC860084637
:1014400085694FF641700540B4F86010606E40EA5F
:101450000140A16E0843E16E0843216F0843616FAC
:10146000084305433748856185694FF6FF70FFF7EC
:1014700050FD34488561D4E91E0108433149C861F3
:101480000846C5694FF6FF70FFF743FD2D48C5615B
:101490003448856934480540D4E920010843D4F82C
:1014A00088100843D4F88C100843D4F890100843EF
:1014B000D4F894100843D4F898100843D4F89C103A
:1014C0000843D4F8A0100843054326488561856980
:1014D0004FF6FF70FFF71DFD22488561D4E9290111
:1014E0000843D4F8AC100843D4F8B0100843D4F83B
:1014F000B41040EA8100D4F8B810084340F400006A
:1015000018490860084605684FF6FF70FFF701FDAF
:1015100014480560006840F08000124908600846E1
:1015200005684FF6FF70FFF7F4FC0E480560019860
:10153000012802D108B0BDE8F0810020FAE70000E0
:101540000087930300800240002D3101C00E160277
:1015500000E1F50580D1F008FFFF0F00FFFF040058
:101560000F8120FF00900240233FDEF810B50B7979
:101570004C7943EA0422094B03441A64CB781B06D6
:101580008C7843EA04434C7843EA04230C7843EA1A
:101590000402024B03445A6410BD00000080024064
:1015A00010B501214FF0606000F05AFFFFF7A6FC74
:1015B00000F03AF900BFFFF787FD0128FBD0204873
:1015C00000F05CF901201E4908600020C8614FF45A
:1015D000007088620020C86288634864C864086537
:1015E00048654FF4806048620020C1F880004FF0E9
:1015F0000070C1F884000011C1F88C000020C1F80F
:101600009400C1F898000420C1F8A000C005C1F8FA
:10161000A4004012C1F8A8008001C1F8AC0040123B
:10162000C1F8B0004000C1F8B80000210448FFF73D
:1016300009FE0449086001210348FFF7C1FB10BD02
:101640009CE30020940100204000010008B5014601
:101650000020009031B10C48006840F004000A4AB4
:10166000106005E00848006820F00400064A106099
:101670000548006800904FF6FF70FFF74AFC024AE9
:101680000098106008BD00000080024008B50146C7
:101690000020009031B10C48006840F008000A4A70
:1016A000106005E00848006820F00800064A106055
:1016B0000548006800904FF6FF70FFF72AFC024AC9
:1016C0000098106008BD00000080024008B53D2071
:1016D0008DF800000C208DF8010000208DF802002C
:1016E00001208DF80300684600F074FE08BD00007C
:1016F00070B502460023002500242E4800680068CB
:1017000000F0004008B1002070BD2A48016840F296
:10171000F450824208DD92FBF0F392FBF0F600FBFE
:10172000162010B15B1C00E00123012B0CD10868CE
:1017300040F040500860C2F30C004860086840F078
:1017400000400860C96826E0002422E0086820F014
:10175000405008601CB9086840F08050086040F2B2
:10176000F4504860581EA0420DD1086840F0005067
:101770000860581EC0EBC01000EB4000A2EB8005D3
:10178000C5F30C004860086840F000400860C96874
:10179000641C9C42DAD3074801600748406900F0A6
:1017A000040020B10420044E70610020706001200C
:1017B000AAE70000900000200090024018B5024601
:1017C0000B460021002000901548016901F01C0122
:1017D0004FF4784000EAC22001434FF4F86000EA79
:1017E0008310014321F0020141F001010C48016125
:1017F00000BF0098401C00900948016901F00100F9
:1018000018B1084C0098A042F3D3064C0098A042AF
:1018100001D1002018BD0248406980B2FAE70000FB
:1018200000800240FFFF04000348006840F0010010
:1018300001490860704700000090024000B5012097
:10184000FFF724FF0120FFF701FFFFF771FB0120E5
:10185000FFF716FB0120FFF7C3FA00BD00B500201B
:10186000FFF70EFB0020FFF7BBFA0020FFF7EEFEAC
:10187000FFF75EFB0020FFF709FF00BD01210160BB
:10188000002141608160C16001614FF4804141618C
:1018900000218161C1614FF4006101620021416258
:1018A0008162C162016341638163C163402101645C
:1018B0002021416400218164C16401654165816525
:1018C000C16501668021416600218166C1660167AC
:1018D00041678167C1674FF08061C0F8801049108F
:1018E000C0F884100021C0F888104FF40011C0F82F
:1018F0008C100021C0F89010C0F89410C0F8981017
:10190000C0F89C10C0F8A0104FF00071C0F8A410EF
:101910004912C0F8A8108901C0F8AC104912C0F8EB
:10192000B0100021C0F8B410C0F8B8107047000023
:1019300038B503460C460021002000901448016988
:1019400001F01C014FF4784000EAC32001434FF43A
:10195000F86000EA8410014341F0020141F0010106
:101960000B484261016100BF0098401C009008488C
:10197000016901F0010018B1064D0098A842F3D3A7
:10198000044D0098A84201D1002038BD0120FCE799
:1019900000800240FFFF04007FB506460020039050
:1019A00096F83100C0F38000002863D03A48006800
:1019B000002843D0002003904FF4805200210846B5
:1019C000FFF7B6FF00BF0398401C039001210020E1
:1019D000FFF7F4FE00F0200018B930490398884260
:1019E000F1D3002003901021FFF7E8FE044604F035
:1019F000040020B14FF400602749086202E0002093
:101A00002549086204F0020018B10020224948610B
:101A100003E04FF4804020494861214805681E4892
:101A200040691D49096A084305431D4805604FF692
:101A3000FF70FFF76EFA1A4805680560FFF7FEFEB3
:101A400000200090029001900120164908706B461A
:101A500001AA02A9144806F053FB134806F0BEFB86
:101A600012A001F0DDFB18A001F0DAFB00201C49F8
:101A7000087010E0FFF7F2FE05200A4908703046B2
:101A800003F0B6FB084806F073FB16A001F0C8FB94
:101A90001AA001F0C5FB7FBD9CE30020FFFF0400FE
:101AA00000800240B001002058E400200D0A2020F0
:101AB0004E6574776F726B204361626C6520697349
:101AC00020200D0A00000000202020206E6F7720CB
:101AD000636F6E6E65637465642020200D0A0000DC
:101AE000980100200D0A094E6574776F726B2043D0
:101AF00061626C6520697320200D0A00202020207F
:101B000020756E706C75676765642020200D0A0073
:101B100038B50020009000BFBF21EFF3118081F3A2
:101B20001188BFF34F8FBFF36F8F00BF054613A01F
:101B300001F076FB012000F06BF8C8B1012000F045
:101B400061F86A460121114800680EF0E9FF044679
:101B500074B101210D4800680EF07EFF009838B185
:101B60004FF080500A490860BFF34F8FBFF36F8F6B
:101B700000BF85F3118800BF38BD00004B455931C7
:101B80005F49525148616E646C65720080010020AB
:101B900004ED00E038B50020009000BFBF21EFF356
:101BA000118081F31188BFF34F8FBFF36F8F00BF98
:101BB00005464FF4005000F02BF8D0B14FF4005020
:101BC00000F020F86A4602210C4800680EF0A8FFD9
:101BD000044674B10221094800680EF03DFF0098E8
:101BE00038B14FF0805006490860BFF34F8FBFF304
:101BF0006F8F00BF85F3118800BF38BD80010020C2
:101C000004ED00E00149086070470000143C014009
:101C100001460020034A12680A400AB1012000E090
:101C200000207047143C0140002123498279002A9A
:101C30003AD00A46126803689A430B461A600A1D96
:101C4000126803689A430B1D1A60027911440A68EE
:101C500003681A430A60184A0832126803689A43F4
:101C6000154B08331A601A1D126803689A43124B09
:101C70000C331A604279102A0ED11A1F12680368B9
:101C80001A430D4B08331A601A1D126803681A4371
:101C9000094B0C331A600DE00749427911440A6878
:101CA00003681A430A6005E0027911440A68036870
:101CB0009A430A6070470000003C01401CB5FFF7E2
:101CC00061F800F09DFA0020009003464FF4807206
:101CD00004A1019005480FF057FD00BF00200EF051
:101CE000DFFAFBE74448435000000000CD1E000827
:101CF000F0B50A4600210023002400BF3DE0012585
:101D000005FA01F3156805EA03049C4234D105681D
:101D10004F000326BE40B543056015794E00B5401F
:101D20000668354305601579012D02D01579022D1D
:101D300016D185684F000326BE40B54385605579AE
:101D40004E00B540866835438560456801268E4063
:101D5000B5434560456896798E40B6B235434560D7
:101D6000C5684F000326BE40B543C560D5794E0017
:101D7000B540C6683543C560491C1029BFD3F0BDC6
:101D8000F0B5002300244D07ED0E02FA05F3CE1046
:101D900000F1200555F826504E07F70E0F26BE40DD
:101DA000B543CF1000F1200646F82750CE1000F1C1
:101DB000200555F8265045EA0304CE1000F1200511
:101DC00045F82640F0BD418370470183704700BF4E
:101DD000FEE71CB50121880300F072FB00210846D4
:101DE00000F06EFD0120009000208DF804000C2012
:101DF0008DF8050001208DF806006846FFF714FFF6
:101E00004FF4005000900D21022000F059FD68466B
:101E1000FFF70AFF1CBD00001CB50121084600F0B9
:101E20001FFB0120009000208DF804008DF80700B2
:101E300069460948FFF75CFF4FF40050009001210C
:101E4000042000F00DFB69460448FFF751FFFFF73F
:101E5000C0FF00F005F81CBD000002400008024071
:101E600008B54FF4407000F0F1FA07208DF800003B
:101E70008DF8010000208DF8020001208DF803008C
:101E800028208DF80000684600F0A4FA08BD000084
:101E90001CB50121042000F0E3FA08200090012085
:101EA0008DF8040000208DF806008DF80500012053
:101EB0008DF8070069460448FFF71AFF0821024819
:101EC000FFF783FF1CBD00000008024098B000200F
:101ED000149000BF79480078012802D002287CD1F4
:101EE00012E0022075490870754803F003F90020DC
:101EF0007449086074A001F093F979A001F090F999
:101F00007DA001F08DF9D4E06D4840686D4908600E
:101F10000846006800287CD003206849087069489A
:101F20000068000E8DF8500066480068000C8DF8BF
:101F3000510064480088000A8DF85200614800781A
:101F40008DF853009DF850009DF85110CDE9001018
:101F50009DF852309DF853206DA10FA801F070F943
:101F60006FA001F05DF956484068000E5449496879
:101F7000C1F30741CDE9001051488088C0F3072321
:101F80004F48027962A10FA801F05AF90FA96EA07B
:101F900001F046F94A488068000E49498968C1F352
:101FA0000741CDE9001046480089C0F307234448A3
:101FB000027A57A10FA801F043F90FA966A001F01A
:101FC0002FF93F48C068000E3D49C968C1F3074179
:101FD000CDE900103A48808900E069E0C0F30723AA
:101FE0003748027B4AA10FA801F02AF90FA95FA088
:101FF00001F016F9324890F82F00314991F82E106F
:102000002F4A92F82D202E4B93F82C30CDE9003238
:1020100000E00FE0CDE90210294890F82B3090F84D
:102020002A2056A105A801F00BF905A95BA001F033
:10203000F7F83CE02248446AA079042836DD042001
:102040001E4908701E4803F0D3F8584817906FF0E7
:102050007F4016905648159015AB16AA17A9184838
:1020600006F04EF853A001F0DBF80A208DF850007E
:1020700001208DF85100A8208DF85200C0208DF865
:1020800053009DF850009DF85110CDE900109DF8C7
:1020900052309DF853204DA10FA801F0D1F84FA068
:1020A00001F0BEF80FA954A001F0BAF800BF00E09B
:1020B00000BF00BFFA200EF0CBF80BE7B001002004
:1020C00058E40020A401002020202020204C6F6F25
:1020D0006B696E6720666F72202020200D0A000059
:1020E000202020202044484350207365727665727A
:1020F000202020200D0A00002020202020706C6568
:1021000061736520776169742E2E2E200D0A000000
:102110002025642E25642E25642E256400000000F1
:1021200049502061646472657373206173736967D9
:102130006E656420627920612044484350207365B5
:10214000727665723A0D0A00495020616464723AF1
:102150002025730D0A0000004E65746D61736B20BD
:10216000616464723A2025730D0A000047572061AC
:102170006464723A2025730D0A0000002025303275
:10218000782D253032782D253032782D2530327853
:102190002D253032782D2530327800004D414320F6
:1021A000616464723A2025730D0A0000C0A8010A18
:1021B000C0A8010120202020444843502074696DAC
:1021C000656F7574202020200D0A000020202564F2
:1021D0002E25642E25642E256400000020205374D3
:1021E000617469632049502061646472657373206F
:1021F00020200D0A0000000025730D0A00000000D9
:1022000000B587B0002108460DF008F900200490C1
:102210000690059019481A49002204ABCDE9002127
:10222000029005AA06A9174805F0BAFD154805F061
:1022300097FF1548006811280ED1124890F8310018
:1022400040F004000F4981F83100084605F0C6FF50
:1022500001200E4908700BE00A4805F089FF0520AF
:102260000A4908700AA000F0DBFF0FA000F0D8FFB9
:102270001249044805F0AEFF07B000BD41600008F8
:10228000BD61000858E4002094010020B001002046
:102290000D0A094E6574776F726B204361626C653D
:1022A00020697320200D0A00096E6F7420636F6E21
:1022B0006E6563746564090D0A00000099190008D1
:1022C00000BFFEE72DE9F05F05460E4617462C4697
:1022D00000BFBF21EFF3118081F31188BFF34F8F4F
:1022E000BFF36F8F00BF8146D4F838A0E06B504534
:1022F00041D994F945B0204607F0B8FD3349098823
:102300000840D8B194F84C0020B102280ED0032820
:1023100013D10AE0A16B4A1C0FB9592100E0C32177
:102320000846214607F0E8FE07E000BFA06B421C0C
:1023300021465A2007F0E0FE00BF00BF0AF101006D
:10234000A0630BF1010070B9606A08B9012000E0D8
:10235000002068B904F124000FF006FC40B13EB142
:102360000120306004E00BF1010040B284F8450028
:102370004FF0010822E0204607F078FD1349098854
:102380000840C8B194F84C0020B102280DD00328B1
:1023900011D109E0A26B0FB95C2100E0C42108460D
:1023A000214607F0A9FE06E000BFA26B21465D2092
:1023B00007F0A2FE00BF00BF4FF0000800BF89F386
:1023C000118800BF4046BDE8F09F0000281A002099
:1023D0007047000070B5002100230F22C4781CB3A1
:1023E000174C246804F4E064C4F5E064C4F30721E6
:1023F000C1F10404E3B20A4144789C40E1B284781C
:10240000144021430C07210E0E4C057861550478C9
:1024100004F01F050124AC4005786D11AD0005F1F5
:10242000E025C5F8004109E0047804F01F05012407
:10243000AC40054D0678761145F8264070BD000089
:102440000CED00E000E400E080E100E0024901431F
:10245000024A1160704700000000FA050CED00E030
:1024600029B1064A12680243044B1A6004E0034A89
:1024700012688243014B1A607047000030380240F6
:1024800029B1064A12680243044B1A6004E0034A69
:1024900012688243014B1A607047000010380240F6
:1024A00029B1064A12680243044B1A6004E0034A49
:1024B00012688243014B1A607047000040380240A6
:1024C00029B1064A12680243044B1A6004E0034A29
:1024D00012688243014B1A60704700004438024082
:1024E000F0B5002100220024022500260223324FED
:1024F0003F6807F00C0121B1042905D0082937D124
:1025000005E02E4F076036E02D4F076033E02A4F7D
:102510003F1F3F68C7F38056274F3F1F3F6807F0B4
:102520003F036EB1264FB7FBF3F7DFF88CC0ACF179
:10253000040CDCF800C0CCF3881C07FB0CF40CE0A6
:102540001E4FB7FBF3F7DFF870C0ACF1040CDCF8FA
:1025500000C0CCF3881C07FB0CF4174F3F1F3F68EB
:10256000C7F301477F1C7D00B4FBF5F7076002E06D
:10257000124F076000BF00BF0F4F3F6807F0F00128
:102580000909104F7A5C0768D74047600A4F3F68D7
:1025900007F4E051890A0B4F7A5C4768D74087609F
:1025A000054F3F6807F46041490B064F7A5C476866
:1025B000D740C760F0BD0000083802400024F40096
:1025C00040787D01800000202DE9F04704460E464A
:1025D00017469846DDF8209000BF2448007808B9D7
:1025E00000F06EFD00BF21484069A04239D9EFF3E9
:1025F00011810846202181F3118800BF00BF0CB370
:1026000004EB44021949603141F8326004EB4402A2
:1026100001EBC2014F6004EB44021449603101EB4D
:10262000C201C1F80880002204EB44030F49603165
:1026300001EBC3010A6104EB44030C49603101EB77
:10264000C301CA6004EB44020849603101EBC201D6
:10265000C1F81490C1B281F3118800BF00BF0025FA
:1026600001E04FF0FF352846BDE8F08794F40020E4
:102670002DE9F04704460E4617469846DDF82090AF
:1026800000BF2448007808B900F01AFD00BF2148B7
:102690000069A04239D9EFF311810846202181F366
:1026A000118800BF00BF0CB304EB44021949183174
:1026B00041F8326004EB440201EBC2014F6004EBCD
:1026C00044021449183101EBC201C1F8088000220C
:1026D00004EB44030F49183101EBC3010A6104EB19
:1026E00044030C49183101EBC301CA6004EB4402F6
:1026F0000849183101EBC201C1F81490C1B281F34D
:10270000118800BF00BF002501E04FF0FF352846CB
:10271000BDE8F08794F400202DE9F04104460D4611
:102720001646EFF311808046202080F3118800BF09
:1027300000BF32462946204600F00AF8074608F056
:10274000FF0080F3118800BF00BF3846BDE8F0816C
:102750002DE9F74F8346174600BF2248007808B995
:1027600000F0AEFC00BF0BEB4B011E48603000EBED
:10277000C106DDF804903569D6F80CA04FF00008CA
:10278000554515D9B068441BBC4201D2204600E033
:10279000384604467068411922464846FDF772FDE6
:1027A000A044A1443F1B2544B068A84200D10025A5
:1027B000AAEB0504BC4201D2204600E0384604469C
:1027C0004CB17068411922464846FDF75BFDA044B4
:1027D000A1443F1B2544B8F1000F00D035614046AD
:1027E000BDE8FE8F94F400202DE9F04104460D462B
:1027F000164600BF0D48007808B900F061FC00BF24
:10280000EFF311800746202080F3118800BF00BF3E
:1028100032462946204600F00BF88046F8B280F395
:10282000118800BF00BF4046BDE8F08194F400204D
:102830002DE9F047074688461646C24607EB470192
:102840001B4800EBC109D9F8140020B1012811D0B0
:10285000022826D11EE0484600F074FC0546B54229
:1028600001D2002405E0344632465146484600F085
:10287000B0FC18E0484600F065FC0546B54201D2C0
:10288000284600E03046044622465146484600F0BD
:10289000A0FC08E032465146484600F061FC044680
:1028A00001E0002400BF00BF2046BDE8F087000023
:1028B000ACF400200149086070470000DC002742AA
:1028C00030B500228B071C0F0F2303FA04F20B4BC9
:1028D0008C1053F824309343084C8D1044F8253065
:1028E00023468C1053F824308C07240F00FA04F48C
:1028F0002343024C8D1044F8253030BD0838014088
:102900000CB50020019000903448006840F48030FD
:102910003249086000BF3148006800F40030009080
:102920000198401C0190009818B90198B0F5A04F8B
:10293000F1D12A48006800F4003010B10120009065
:1029400001E0002000900098012846D12348403043
:10295000006840F0805021494031086020480068FC
:1029600040F440401E4908601C48083000681B497C
:10297000083108600846006840F4004008600846D6
:10298000006840F4A05008601648091F0860081F3E
:10299000006840F08070091F086000BF0F480068A1
:1029A00000F000700028F9D040F205700E49086070
:1029B0000A480830006820F0030008490831086020
:1029C0000846006840F00200086000BF0348083075
:1029D000006800F00C000828F8D10CBD0038024057
:1029E0000070004019544007003C024010B500BF81
:1029F000BF2080F31188BFF34F8FBFF36F8F00BFED
:102A00000EF00EFF18B14FF080500449086000BF6F
:102A1000002080F3118800BF10BD000004ED00E02D
:102A200010B51548006840F4700013490860134859
:102A3000006840F001001149086000200F4908318A
:102A400008600E4800680E4908400C4908600D48AF
:102A5000091D0860081F006820F48020091F086015
:102A6000002006490C310860FFF74AFF4FF0006074
:102A700001498039086010BD88ED00E0003802404F
:102A8000FFFFF6FE103000240EB500200090002459
:102A900023E000BF002000906A46082101A807F04B
:102AA000B9FF04460CB10DF0B1FF4CB900980828ED
:102AB00006D101A806F03AFD10B101A806F058FDB4
:102AC00000980028E6D10FF08DF918B106F090FAC1
:102AD00006F05EFE0A200DF0BBFBDAE770B50026BB
:102AE00000BF002400BF002540F22441174800F039
:102AF00028FA28B315480088C6B214488088C6B2A0
:102B000000211348FDF7F2FF12491148FDF7D4FFE9
:102B100011490F48FDF7D0FF0D48FEF7BFF8C0F58B
:102B2000806084B207E00D48415D0DA000F078FBA5
:102B30006D1C601E84B2002CF5D10AA000F070FB61
:102B40004FF480610248FEF789F870BD0010014023
:102B500040640240008020100020081090E4002013
:102B6000255800000A00000010B588B00446012175
:102B70001020FFF7A5FC01210846FFF771FC072292
:102B800009212F48FFF7FCF807220A212C48FFF7FC
:102B9000F7F84FF40070069002208DF81C0000201A
:102BA0008DF81E008DF81F0003208DF81D0006A96A
:102BB0002348FFF79DF84FF48060069002208DF8BF
:102BC0001C0000208DF81E008DF81F0003208DF8DA
:102BD0001D0006A91A48FFF78BF802940020ADF8F3
:102BE00014000C20ADF812000020ADF81000ADF874
:102BF0000E00ADF80C0002A9124800F0F1F92520F2
:102C00008DF8040008208DF8050001208DF80600DD
:102C10008DF8070001A8FFF7DDFB012240F22441F7
:102C2000084800F0B8F901224021064800F02DF9CB
:102C30000121044800F01DF900F030F908B010BD82
:102C4000000002400010014070B500BF002440F2B7
:102C500024411C4800F075F9002832D040F224418C
:102C6000184800F0F7F800211748FDF73FFF154816
:102C70000588001D05881548018815A000F0D0FAC8
:102C80001248008880B116A000F0CAFA05E0154885
:102C9000015D15A000F0C4FA641C0C480088001BFC
:102CA000F5D10FA000F0BCFA11490748FDF7EAFE84
:102CB0004FF480610448FEF761F801210248FDF7F6
:102CC00015FF70BD0044004088600240B20900203A
:102CD0000A555341525432BDD3CAD53D25640A002A
:102CE0000A00000091E80020253032582000000042
:102CF000400F002070B500BF002440F224411C4862
:102D000000F01FF9002832D040F22441184800F0AA
:102D1000A1F800211748FDF7E9FE15480588001DB8
:102D200005881548018815A000F07AFA1248008835
:102D300080B116A000F074FA05E01548015D15A0F9
:102D400000F06EFA641C0C480088001BF5D10FA03F
:102D500000F066FA11490748FDF794FE4FF48061D0
:102D60000448FEF70BF801210248FDF7BFFE70BDD5
:102D70000048004028600240B41100200A55534129
:102D8000525433BDD3CAD53D25640A000A00000061
:102D900091EC00202530325820000000400F001038
:102DA00070B500BF002440F224411E4800F0C9F86D
:102DB000002835D040F224411A4800F04BF8002199
:102DC0001948FDF793FE17480588001D0588174828
:102DD000018817A000F024FA1448008880B118A0D8
:102DE00000F01EFA05E01748015D17A000F018FA80
:102DF000641C0E480088001BF5D111A000F010FAE9
:102E000000200A49088012490748FDF73BFE4FF4AD
:102E100080610548FDF7B2FF01210348FDF766FE1A
:102E200070BD00000014014028640240B619002063
:102E30000A555341525433BDD3CAD53D25640A00C7
:102E40000A00000091F000202530325820000000D8
:102E5000400F001010B50022002340F66A14A14272
:102E600000D100BF0A1201249440A3B2DC430480C5
:102E700010BD21B1828942F40052828104E082892E
:102E80004DF6FF731A40828170471AB1838A0B4353
:102E9000838202E0838A8B438382704700B58FB0C0
:102EA00001218805FFF7DCFA1C48FDF72BFE00BF67
:102EB0001A48FDF7E9FE0028FAD14FF000600090B3
:102EC0001748019017480290002003904FF480604B
:102ED0000490002005904FF4806006900020079039
:102EE00008904FF48070099000020A9000200B9027
:102EF00003200C9000200D900E9069460748FDF7C6
:102F000011FF01210548FDF7F1FD00BF0348FDF762
:102F1000BBFE0128FAD10FB000BD000040640240A2
:102F20000410014090E4002002460020B1F5007F2B
:102F300000D100BF13880B400BB1012000E000203E
:102F4000704770B50246002400230025002040F69B
:102F50006A16B14200D100BFC1F3421501F01F0350
:102F6000012606FA03F3012D02D19689334006E0CB
:102F7000022D02D1168A334001E0968A33400C12AA
:102F8000012606FA04F41688344013B10CB101206E
:102F900000E0002070BDF0B50346002400260025A7
:102FA000002040F66A17B94200D100BF1846C1F3AD
:102FB000421401F01F06012707FA06F5012C01D182
:102FC0000C3004E0022C01D1103000E014301AB1B2
:102FD00007682F43076002E00768AF430760F0BD52
:102FE0002DE9FF4705460E460024A14600BFA04636
:102FF000B08900B100BF2C8A24F44054F088044307
:103000002C82AC8941F20C608443B088318908433A
:10301000718908430443AC81AC8A24F44074B089BC
:103020000443AC826846FFF75BFA2048854202D031
:103030001F48854202D1DDF80C9001E0DDF80890D0
:10304000A88900F4004040B109EBC90000EB091069
:1030500031684900B0FBF1F707E009EBC90000EB6C
:10306000091031688900B0FBF1F76420B7FBF0F07C
:1030700004012009642101FB1078A88900F40040B4
:1030800040B1322000EBC800B0FBF1F000F00700C7
:10309000044308E0322000EB08106421B0FBF1F09B
:1030A00000F00F0004432C81BDE8FF8700100140B1
:1030B00000140140C1F308028280704700BFFEE7A0
:1030C00010B5134C214613A000F0AAF8032020618C
:1030D000606114A0A0611649E161402121620021D4
:1030E000A1626162E1620FA020661249616610214F
:1030F000A16600212167E16661670FA1E01DFDF770
:1031000000F90EA12046FDF7FCF82020A07110BDAB
:1031100094F400205F5345474745525F5254543D55
:1031200025700A005465726D696E616C00000000C4
:103130003CF500207CF5002052545400534547478D
:103140004552000010B501460A69CB689A4204D87E
:103150008C68641EE41AA01801E0D41A601E10BD29
:103160002DE9F0470446894617464FF0000AE56806
:1031700000BFD4F81080A84503D9A8EB0500461E6F
:1031800004E0A5EB0800401CA1680E1AA068401BD3
:10319000B04201D9304601E0A068401B0646BE425D
:1031A00001D2304600E0384606466168481932468A
:1031B0004946FDF767F8B244B144BF1B3544A068E7
:1031C000A84200D10025E560002FD2D15046BDE8CD
:1031D000F0872DE9F047044689461546E668A06861
:1031E000871BAF4208D9616888192A464946FDF70E
:1031F00049F87019E06010E0B846616888194246E5
:103200004946FDF73FF8A5EB070809EB07014246E1
:103210006068FDF737F8C4F80C80BDE8F08700005F
:103220000FB4054B10B503A9044A029800F0F4F856
:1032300010BC5DF814FB00005D6200083C1A002021
:103240000FB4084B10B504A902AA039800F0E4F8E3
:10325000044602A9002000F062FC204610BC5DF884
:1032600014FB00001F3B0008EFF31080704702E0E2
:1032700008C8121F08C1002AFAD170477047002001
:1032800001E001C1121F002AFBD1704780F31088B2
:10329000704700002DE9FF5F82B00021DDE90430B6
:1032A000020DDDF840B0034318D044F61050A2F2EE
:1032B000FF3242431514119801281FD0A5EB0B00D3
:1032C000401C5FEA000A4FF000064E4FDFF83891CD
:1032D000B046504615D5CAF1000413E011980124F8
:1032E0004AA3012801D16FEA0B010298119AC0E9A3
:1032F0000031C0E9024206B0BDE8F09FCBF100000A
:10330000DFE704460021404A491842EB0450CDE96A
:10331000001012E0E00707D032463B4640464946DF
:10332000FDF7E6F88046894632463B461046194688
:10333000FDF7DEF806460F466410002CEAD1DDE901
:103340000401DDE90023BAF1000F06DAFDF7D0F839
:1033500042464B46FDF7CCF805E0FDF73BF9424607
:103360004B46FDF737F904460E460022284BFDF781
:10337000B9F903D84FF0FF30014607E00022254B92
:1033800020463146FDF70DF8FDF793F9102409E0CA
:10339000002C0ADB0A220023FCF7D2FF039B303209
:1033A0001A55641E50EA0102F2D1641C039AC4F15A
:1033B00011031444119A012A03D0012208430DD1AC
:1033C0000AE0084304D000204FF0110B119072E77F
:1033D000A3EB0B056D1E0DE05B4504DD4FF0000215
:1033E00005F1010504E003DA4FF00002A5F1010543
:1033F000002AECD002981199C0E90231C0E90045D9
:1034000079E70000000014400000F03F30000000A9
:103410000000F0430000E03F2DE9FF4F95B09A46D1
:10342000884606460025EEE1252877D10024274668
:10343000F94A0121039400E0044316F8013F203BC0
:1034400001FA03F01042F7D130782A2811D06FF03A
:103450002F033078A0F13002092A16D8039A44F0DD
:10346000020402EB820203EB42021044761C03903A
:10347000EFE758F8042B0392002A03DA504244F491
:103480000054039044F00204761C30782E2816D1A4
:1034900016F8010F44F004042A280DD06FF02F0213
:1034A0003078A0F13003092B09D807EB870302EB32
:1034B0004303C718761CF3E758F8047B761C307872
:1034C0006C280FD006DC4C2817D068280DD06A284D
:1034D00014D104E0742810D07A280FD10DE044F400
:1034E00000140AE044F4801401E044F440147278BB
:1034F000824202D104F58014761C761C307866284E
:103500000BD013DC582877D009DC002875D045286B
:10351000F6D04628F4D047281AD193E118E0632862
:1035200035D0642879D0652812D18BE1702873D00A
:1035300008DC6728F1D069286FD06E280DD06F287D
:1035400006D1ACE073282CD0752874D0782853D0DD
:103550005246179990476D1C54E1C4F3025002285B
:1035600009D003280DD0D8F8001004280DD00D6024
:1035700008F1040846E1D8F80010EA17C1E9005242
:10358000F6E7D8F800100D80F2E70D70F0E718F8B4
:10359000041B8DF8001000208DF80100EB4601207F
:1035A00003E058F804BB4FF0FF3061074FF0000113
:1035B00002D40DE009F101018946B9420FDA8145D3
:1035C000F8DB1BF809100029F4D108E009F101012A
:1035D00089468142FADB1BF809100029F6D10398CD
:1035E0005346A0EB090721463846179A00F080FAA7
:1035F000284400EB090507E044E008E10DE01BF872
:10360000010B524617999047B9F10109F7D2534679
:1036100021463846179AF2E039E00A21C4F30252F3
:103620004FF0000B0091022A06D058F8040BC11786
:10363000032A09D00AE023E008F1070020F007027E
:10364000F2E80201904605E000B2C117042A01D158
:1036500040B2C117002906DA0A460021404261EB58
:1036600002012D2202E0220504D52B228DF8042030
:10367000012203E0E20701D02022F7E7914657E05C
:103680000A2100E010214FF0000B00910BE0102107
:103690004FF0000B44F004040827009103E00820D9
:1036A0004FF0000B0090C4F30252022A05D058F8E4
:1036B000040B0021032A08D008E008F1070020F0DD
:1036C0000702F2E80201904603E080B2042A00D12A
:1036D000C0B24FF0000922072AD53278702A07D0ED
:1036E000DDF800C08CF0100C5CEA0B0C05D00EE08D
:1036F00040228DF80420012208E050EA010306D0A0
:1037000030238DF804308DF8052002229146009B6D
:1037100083F0080353EA0B030AD150EA010201D1F6
:10372000620705D530228DF804204FF001097F1E75
:103730003278582A04D039A20C920CAA02920BE0DB
:103740003BA2F9E75B46009AFCF7FAFD0C9B9B5CF9
:10375000029A521E0292137050EA0102F2D10298AC
:1037600004A9081A00F1200B600702D524F4803464
:1037700000E001275F4502DDA7EB0B0000E0002021
:1037800000EB0B01009003984944401A0390E003BA
:1037900006D453462146179A039800F0A9F9054428
:1037A000002706E001A85246C05D179990476D1C9E
:1037B0007F1C4F45F6DBE0030CD553462146179A94
:1037C000039800F095F9054404E03020524617991B
:1037D00090476D1C0099481E00900029F5DC08E018
:1037E0000298029952460078491C02911799904715
:1037F0006D1CBBF10001ABF1010BF1DC5BE100F0F2
:1038000065F90544761C307800287FF40DAE19B0B8
:103810002846BDE8F08F000009280100303132331E
:1038200034353637383961626364656600000000FC
:1038300030313233343536373839414243444546E6
:1038400000000000600700D4062708F1070020F000
:103850000700F0E80223804603F0004C5FEA0C000A
:1038600001D097A009E0200501D596A005E0E0076A
:1038700001D095A001E0AFF24C001390307823F016
:10388000004365280CD006DC452809D046281DD009
:1038900047287FD13BE0662818D067287AD136E0E8
:1038A0000021112F01DB112000E0781CCDE900017F
:1038B00004A90CA8FFF7EEFCDDE90D010C9A4FF00E
:1038C000000B07F10109109200914EE04FF000400B
:1038D0000097CDE9011004A90CA8FFF7DBFCDDE996
:1038E0000D020C9B0F994FF0000B91461093009224
:1038F00011B9791C00EB0109B7EB090003D4C0F141
:10390000FF3B07F10109A9EB0700019042E0012FFD
:1039100000DA01270021112F01DD112000E03846D7
:10392000CDE9000104A90CA8FFF7B4FCDDE90D0105
:103930000C9A00914FF0000BB946109221070FD45A
:10394000009A4A4503DA914601E0A9F10109B9F16B
:10395000010F05DD109AA9F10101515C3029F4D065
:10396000B84202DA10F1040F03DA0121CDE90110A7
:1039700010E0002803DC8344A9EB000102E0411CB5
:10398000494500DD8946A0EB0B00401C01904FF03B
:1039900000400290200705D40198484502DB4FF013
:1039A000FF30019000208DF84B0002980DF14B077D
:1039B000B0F1004F25D002200C902B200D900298E2
:1039C00000280CDA404202902D200D9007E00A21D9
:1039D0000298FCF79FFC3031029007F8011D0C990A
:1039E000481E0C900029F2DC02980028EFD1791EC5
:1039F0000D980870307800F0200040F0450007F87E
:103A0000020D11A8C01BC01D02901398007800B1D0
:103A1000012000EB0901019801EBE07102980144DB
:103A20000398401A401E0390E00306D453462146F3
:103A3000179A039800F05CF805441398007818B1C1
:103A40005246179990476D1CE00323D553462146F3
:103A5000179A039800F04CF805441BE0BBF1000FE7
:103A600007DB0098584504DD1098179910F80B00F3
:103A700001E0179930205246904701980BF1010B55
:103A8000401E05F10105019004D12E2052461799E0
:103A900090476D1CB9F10001A9F10109DEDC05E0D8
:103AA00017F8010B5246179990476D1C0299481E52
:103AB00002900029F4DC53462146179A03989EE6AB
:103AC0002D0000002B000000200000002DE9F04137
:103AD000044600251E461746880404D405E03946EE
:103AE0002020B0476D1C641EF9D52846BDE8F08142
:103AF0002DE9F041044600251E469046C80301D535
:103B0000302700E02027880404D505E041463846E8
:103B1000B0476D1C641EF9D52846BDE8F0810A68DF
:103B2000531C0B601070704710B5044602F096F9F4
:103B3000002203494FF47A7007F078F910BD0000B5
:103B4000293B000870B505460E4600BF2DB900BFE1
:103B50000CA0FFF765FB00BF70BD00BF6C6A00BF23
:103B600000BF6CB1607908280AD100BF00BF30687F
:103B7000E169884204D100BF00BF284600F02AFA5C
:103B800000BFE9E76E6574696620213D204E554C03
:103B90004C0000007CB5064600BF2EB900BF4AA00D
:103BA000FFF73EFB00BF7CBD00BF746A00BF2CB9AD
:103BB00000BF4CA0FFF734FB00BFF4E700BF00BF1D
:103BC00000BF00206082A06A401C90B100BF00BF0F
:103BD000A06A1E303C21B0FBF1F5B5F5803F01D362
:103BE0004FF6FF75A582A08A08B90120A08200BF08
:103BF00000BFE06A401CA0B100BF00BFE06A1E30F9
:103C00003C21B0FBF1F5B5F5803F01D34FF6FF75D0
:103C10006581608908B90120608100BF00BF6089AB
:103C2000E081206B401CA0B100BF00BF206B1E30A4
:103C30003C21B0FBF1F5B5F5803F01D34FF6FF75A0
:103C4000A581A08908B90120A08100BF00BFA0897B
:103C500020826089A189884204DBA089002801DDD7
:103C600000206081E07910B1206A01900FE0207F90
:103C70007F2802DCFF21019108E0C02803DB6FF000
:103C80007F41019102E04FF6FF71019100BF606A30
:103C90000090009848B900BFE06901990840009081
:103CA00000BF009840F08070009000BF00BF0A2164
:103CB000204601F017FA6B4601AA04F11C013046B8
:103CC00004F01EFA00BF6EE7646863705F62696E9D
:103CD000643A206E6574696620213D204E554C4C37
:103CE00000000000646863705F62696E643A20647B
:103CF00068637020213D204E554C4C002DE9F04169
:103D00000646746A00BF00BF0821204601F0EAF9A8
:103D1000002204F11C01304601F0D2FE05460DB12F
:103D200000BF00BFA079FF2802DAA079401CA07173
:103D30004FF4FA7707F2F310394690FBF1F0208147
:103D400000BF00BFBDE8F08170B500BF00BF1B48D9
:103D500005682FE06C6AFCB16079E8B1A08A78B19F
:103D6000608A401C80B26082A18A884208D100BF6C
:103D700000BF284600F0E4FF284601F0BBF918E038
:103D8000208A50B1218A481E2082012905D100BF16
:103D900000BF284601F06BFA0BE0E08948B1E189E9
:103DA000481EE081012904D100BF00BF284601F070
:103DB00039FA2D68002DCDD170BD0000EC00002037
:103DC0002DE9F05F07460D4616469A4600BF3FB9FB
:103DD00000BF45A0FFF724FA00BF0020BDE8F09F18
:103DE00000BF00BF35B900BF47A0FFF719FA00BFF9
:103DF0000020F3E700BF4FF420724FF49A71362091
:103E000004F06AFA8146B9F1000F03D100BF00BF88
:103E10000020E3E700BFB9F80A00B0F59A7F04D2AA
:103E200000BF41A0FFF7FCF900BF00BF032E02D185
:103E30006879032809D1A87920B94B480068401C4B
:103E40004949086048480068286000BF00BFD9F8A9
:103E500004404FF49A712046FCF73BFA0120207091
:103E6000607097F83000A070286803F039FB60603C
:103E7000082E0BD0042E09D0072E07D0032E07D111
:103E80006879052802D06879042801D17868E06053
:103E90004FF000080BE007F12A0010F8081004F1B9
:103EA0001C0000F8081008F101001FFA80F8B8F1B2
:103EB000060FF0D32D48C4F8EC000123352204F19D
:103EC000F001002000F060FA8346324604F1F00170
:103ED000584600F077FA8346BAF1000F01D0AAF8ED
:103EE00000B048467AE70000646863705F637265FB
:103EF0006174655F6D73673A206E65746966202131
:103F00003D204E554C4C0000646863705F637265E1
:103F10006174655F6D73673A206468637020213D4A
:103F2000204E554C4C000000646863705F637265FE
:103F30006174655F6D73673A20636865636B2074B5
:103F4000686174206669727374207062756620639C
:103F5000616E20686F6C6420737472756374206482
:103F60006863705F6D73670068010020638253634C
:103F700010B500BF0C480078002804DC00BF0BA07F
:103F8000FFF74EF900BF00BF07480078401E064902
:103F900008700846007830B90D4800680BF026FE1E
:103FA00000200B49086010BD640100206468637044
:103FB0005F7063625F726566636F756E7428293A1D
:103FC00020726566636F756E74206572726F720021
:103FD000600100202DE9FE4F0646746A00BF00BF55
:103FE0000C21204601F07EF802AB04222146304627
:103FF000FFF7E6FE054675B3D5F8048004233222A8
:1040000008F1F001BDF8080000F0BEF90290E06987
:1040100003F066FA8246524608F1F001BDF8080046
:1040200000F000FA02902A4608F1F001BDF80800FD
:1040300000F074FA14484323144A2946CDE900607D
:10404000134800680BF098FE0746284604F070FC01
:1040500000BF00BF04E0FFE700BF00BF4FF0FF3725
:10406000A079FF2802DAA079401CA07142F21079F1
:1040700009F2F3104FF4FA7190FBF1F0208100BFC8
:1040800000BF3846BDE8FE8F701F0108741F01088D
:10409000600100202DE9FE4F07467C6A4FF0000AC0
:1040A00000BF00BF0020E0610621204601F01AF8A1
:1040B00002AB012221463846FFF782FE0546002D5D
:1040C0004AD06E6800BF00BF0223392206F1F0011A
:1040D000BDF8080000F058F902903A8D06F1F001A1
:1040E000BDF8080000F0E2F902900323372206F140
:1040F000F001BDF8080000F047F90290D0460DE04D
:10410000274810F8082006F1F001BDF8080000F07B
:1041100059F9029008F1010000F0FF08B8F1030F0F
:10412000EED32A4606F1F001BDF8080000F0F6F9DA
:1041300000BF00BF1B4843231B4A2946CDE900703E
:104140001A4800680BF018FE00BF00BF284604F0B4
:10415000EFFB00BF00BF01E000BF00BFA079FF2858
:1041600002DAA079401CA071A079062803DAA179AF
:104170000120884000E03C2000EB4001C1EBC01072
:104180004FF6FF7101EAC00909F2F3104FF4FA711A
:1041900090FBF1F0208100BF00BF5046BDE8FE8FCC
:1041A0005C010020701F0108741F010860010020DD
:1041B00070B50D48056814E06C6A8CB1208901283F
:1041C00003DD2089401E20810AE02089012807D1D3
:1041D0002089401E208100BF00BF284601F06FF8F3
:1041E0002D68002DE8D170BDEC00002070B50546AB
:1041F0000E466C6A0020206260621A48C07810B1D6
:104200001948C068A0621748007918B116480069BB
:10421000E06202E0A06A4008E0621248407918B10A
:1042200011484069206304E0A06AC0EBC000C008E8
:1042300020633069E0610B48807938B10A498869A8
:1042400003F04EF920620120E07101E00020E071EE
:104250000448C07920B10449C86903F041F960629B
:1042600070BD0000540100208CE2002070B50446AF
:10427000656A00BF00BF0C21284600F033FF054BE4
:104280001A461146204603F03BFF2046FFF702FF87
:1042900070BD0000701F010870B505460E466C6ABF
:1042A00000BF00BF0B48807880B1002020810A4900
:1042B000886803F015F9A06100BF00BF3069E061B4
:1042C00000BF00BF284600F027FE01E000BF00BF8E
:1042D00070BD0000540100208CE2002010B51C4885
:1042E000007800282DD100BF1A48006820B100BF17
:1042F00019A0FEF795FF00BF00BF0BF01FFC15498A
:1043000008600846006810B94FF0FF3010BD114832
:104310000068407A40F020000E4909684872442243
:1043200017490C4800680BF0A1F9432214490948C9
:1043300000680BF00DFA00221249064800680BF0E5
:1043400037FC03480078401C014908700020DDE775
:104350006401002060010020646863705F696E631F
:104360005F7063625F726566636F756E7428293A69
:10437000206D656D6F7279206C65616B00000000C7
:10438000701F0108E54B00082DE9F04104460D4679
:1043900017461E4600BFA01C3044442804D900BF65
:1043A0000748FEF73DFF00BF00BF2046611C8CB2EE
:1043B0002F542046611C8CB22E542046BDE8F0815B
:1043C0001021010870B504460D46164600BF442C66
:1043D00004D300BF05A0FEF723FF00BF00BF2046A7
:1043E000611C8CB22E54204670BD0000646863705E
:1043F0005F6F7074696F6E5F627974653A206F7079
:1044000074696F6E735F6F75745F6C656E203C20AE
:10441000444843505F4F5054494F4E535F4C454EB4
:104420000000000070B504460D46164600BF201D72
:10443000442804D900BF0EA0FEF7F2FE00BF00BF63
:10444000320E2046611C8CB22A54C6F30742204625
:10445000611C8CB22A54C6F307222046611C8CB220
:104460002A542046611C8CB22E54204670BD000098
:10447000646863705F6F7074696F6E5F6C6F6E6796
:104480003A206F7074696F6E735F6F75745F6C65DF
:104490006E202B2034203C3D20444843505F4F5039
:1044A00054494F4E535F4C454E00000070B50446D2
:1044B0000D46164600BFA01C442804D900BF08A022
:1044C000FEF7AEFE00BF00BF320A2046611C8CB270
:1044D0002A542046611C8CB22E54204670BD000028
:1044E000646863705F6F7074696F6E5F73686F721A
:1044F000743A206F7074696F6E735F6F75745F6C60
:10450000656E202B2032203C3D20444843505F4FB5
:104510005054494F4E535F4C454E000070B5044611
:104520000D461646FF222046611C8CB22A5404E038
:1045300000222046611C8CB22A54442C02D304F081
:10454000030008B1442CF3D304F1F00081B23046EB
:1045500004F088FA70BD00002DE9F04F8BB0814661
:10456000002007900690EC48002101604160B9F8F6
:104570000A002C2803D2881E0BB0BDE8F08FD9F8B2
:10458000040005904FF0F00AB9F80800089000BF49
:104590004C460AE06089AAEB00001FFA80FA6189A4
:1045A0000898401A80B20890246814B16089504578
:1045B000F0DD14B96FF00100DEE755460898099068
:1045C00060680A906DE10A98405D049000274FF002
:1045D000FF38A81C1FFA80FBAB4501DAB81ECBE7F9
:1045E0006189681C814203DD691C0A98465C07E00A
:1045F000206818B120684068007800E00020064676
:1046000037460498342843D007DC78B1012811D00C
:1046100003281ED0332871D12BE0352854D03628FA
:1046200061D03A2870D03B28F5D17CE000200646C6
:1046300007468DE000BF042E07D000BFB7A0FEF7ED
:10464000EFFD00BF6FF0050096E700BF4FF00608D2
:104650007EE0042700BFBE4207DA00BFB2A0FEF72B
:10466000DFFD00BF6FF0050086E700BF4FF00708D1
:104670006EE000BF042E07D000BFA8A0FEF7D0FD5B
:1046800000BF6FF0050077E700BF4FF003085FE061
:1046900000BF012E07D000BFA8A0FEF7C1FD00BFDC
:1046A0006FF0050068E700BF00BFBAF1F00F07D058
:1046B00000BFA5A0FEF7B4FD00BF6FF005005BE7EB
:1046C00000BF4FF0000843E000BF012E07D000BF3D
:1046D0009AA0FEF7A5FD00BF6FF005004CE700BFF4
:1046E0004FF0010834E000BF042E09D000BF8BA0BA
:1046F000FEF796FD00BF6FF005003DE722E003E006
:1047000000BF4FF0020823E000BF042E07D000BF17
:1047100082A0FEF785FD00BF6FF005002CE700BF0B
:104720004FF0040814E000BF042E07D000BF7BA0A8
:10473000FEF776FD00BF6FF005001DE700BF4FF0EC
:10474000050805E0002700BF00BF00BF00BF00BF95
:1047500000BF049810B9681C85B281E0A819801CBC
:10476000B0F5803F02DB6FF0010005E7A819801C5F
:1047700085B2002F74DD0020039000BF00BFB8F1A8
:10478000000F02DBB8F1080F04DB00BF74A0FEF7D6
:1047900047FD00BF00BF604810F8080000285ED148
:1047A000042F01DA384600E0042002905B4603A99A
:1047B0002046029A04F050F801460298814202D045
:1047C0006FF00100D8E6042F2BDD00BFF91707EBCF
:1047D00091718910A7EB810139B100BF65A0FEF787
:1047E0001FFD00BF6FF00500C6E600BF01204A496B
:1047F00001F80800039802F073FE644941F82800AC
:10480000381FC7B20BF1040080B2019001985845DF
:1048100002DA6FF00100AFE6DDF804B008F101083C
:10482000ACE7042F04D1039802F05AFE03900EE087
:1048300000BF012F07D000BF55A0FEF7F1FC00BF5D
:104840006FF0050098E600BF9DF80C000390012072
:10485000314901F808004D49039841F8280000BF8C
:104860006089A8421CDC6089281A85B26189099890
:10487000401A80B20990099885420EDA246800BF78
:104880003CB900BF47A0FEF7CBFC00BF6FF00500AE
:1048900072E600BF60680A9002E06FF001006BE60C
:1048A00000BF3CB10998854204DA0A98405DFF28B0
:1048B0007FF489AE18480078D0B1344908680021E7
:1048C000154A1170012803D10121079100BF0EE0A4
:1048D000022803D10121069100BF08E0032804D17A
:1048E00001210691079100BF01E000BF00BF00BF9A
:1048F000079830B1002007904FF06C0AEC20089028
:1049000046E6069830B1002006904FF02C0A6C2045
:1049100008903DE600202FE6540100206C656E20D3
:104920003D3D2034000000006C656E203E3D20645B
:1049300065636F64655F6C656E0000006C656E207A
:104940003D3D2031000000006F7665726C6F616440
:1049500020696E2066696C652F736E616D6500005D
:10496000636865636B206465636F64655F69647821
:10497000000000006465636F64655F6C656E2025F0
:10498000252034203D3D2030000000008CE2002036
:10499000696E76616C6964206465636F64655F6CE1
:1049A000656E00006E6578742070627566207761B0
:1049B00073206E756C6C00002DE9FC4707467C6A1D
:1049C00000BF00BF0421204600F08CFB01AB032296
:1049D00021463846FFF7F4F90546002D44D06E68AD
:1049E0000223392206F1F001BDF80400FFF7CCFCE8
:1049F00001903A8D06F1F001BDF80400FFF756FD75
:104A000001900323372206F1F001BDF80400FFF7FF
:104A1000BBFC01904FF000080DE0254810F808207D
:104A200006F1F001BDF80400FFF7CCFC019008F19D
:104A3000010000F0FF08B8F1030FEED32A4606F19B
:104A4000F001BDF80400FFF769FD4323194A294628
:104A50001948009700680BF001F98146284603F0D9
:104A600067FF00BF00BF03E000BF00BF4FF0FF398A
:104A7000A079FF2802DAA079401CA071A0790A2849
:104A800005DAA0794FF47A7110FB01F001E042F2EF
:104A900010701FFA80FA0AF2F3104FF4FA7190FBCB
:104AA000F1F0208100BF00BF4846BDE8FC87000050
:104AB0005C010020741F0108600100202DE9FC5FEB
:104AC0008046D8F8244000BF00BF0321204600F0F4
:104AD00009FB01AB032221464046FFF771F9064668
:104AE000002E56D075680223392205F1F001BDF879
:104AF0000400FFF749FC01904FF4107205F1F0013A
:104B0000BDF80400FFF7D2FC01900423322205F126
:104B1000F001BDF80400FFF737FC0190E06902F0F6
:104B2000DFFC83465A4605F1F001BDF80400FFF7AB
:104B300079FC01900323372205F1F001BDF8040050
:104B4000FFF722FC019000270AE02348C25D05F12F
:104B5000F001BDF80400FFF735FC0190781CC7B2E6
:104B6000032FF2D3324605F1F001BDF80400FFF740
:104B7000D5FC4323194A31461948CDF80080006816
:104B80000BF06CF88146304603F0D2FE00BF00BF48
:104B900003E000BF00BF4FF0FF39A079FF2802DA21
:104BA000A079401CA071A0790A2805DAA0794FF4F9
:104BB0007A7110FB01F001E042F210701FFA80FAE6
:104BC0000AF2F3104FF4FA7190FBF1F0208100BF6C
:104BD00000BF4846BDE8FC9F5C010020741F01082F
:104BE000600100202DE9F05F1646DDF828B051483D
:104BF00047687C6AD6F804900CB1207900B994E03B
:104C000000BF00BF00BF00BF00BF00BF00BF00BFAC
:104C100070892C2802DA00BF00BF86E099F80000F6
:104C2000022802D000BF00BF7FE000250CE007F1A2
:104C30002A00415D09F11C00405D814202D000BFA5
:104C400000BF72E0681CC5B297F83000A84201DDD1
:104C5000062DECD3D9F8040002F042FC216888420A
:104C600002D000BF00BF60E021463046FFF774FC71
:104C700010B100BF00BF58E000BF00BF2E48407811
:104C800010B900BF00BF50E0D6F804A02B4890F840
:104C90000480B8F1050F26D100BF00BF607901285C
:104CA00010D151463846FFF7A1FA97F8310000F0CD
:104CB000080018B13846FFF721F835E03846FEF70E
:104CC00069FF31E06079032805D06079042802D0BB
:104CD0006079052828D151463846FFF787FA3846CB
:104CE000FEF758FF20E0B8F1060F11D160790328D4
:104CF00008D06079012805D06079042802D0607955
:104D0000052805D100BF00BF3846FFF7AFFA0BE01A
:104D1000B8F1020F08D16079062805D100BF00BFA5
:104D200051463846FFF7B8FA00BF304603F000FEA0
:104D3000BDE8F09F80940020540100208CE2002008
:104D40002DE9FE430646746A00BF00BF0CB9BDE8FA
:104D5000FE83607900B9FAE7A06902900020A061A3
:104D6000E061206260622063E062A062A0826082F3
:104D70002082E081304600F041FA90B301AB072277
:104D800021463046FFF71CF805465DB36F680423E3
:104D9000362207F1F001BDF80400FFF7F5FA0190A3
:104DA000029802F09DFB8046424607F1F001BDF8F3
:104DB0000400FFF737FB01902A4607F1F001BDF828
:104DC0000400FFF7ABFB432302AA294610480096D4
:104DD00000680AF043FF284603F0AAFD00BF00BFA9
:104DE00003E003E0FFE700BF00BF00BF094B1A4626
:104DF0001146304603F084F90021204600F072F994
:104E0000207918B1FFF7B4F80020207100BF9EE7A9
:104E100060010020701F01082DE9FC4707467C6AED
:104E200000BF00BF0521204600F05CF901AB032262
:104E300021463846FEF7C4FF0546002D45D06E6872
:104E40000223392206F1F001BDF80400FFF79CFAB5
:104E500001903A8D06F1F001BDF80400FFF726FB42
:104E600001900323372206F1F001BDF80400FFF79B
:104E70008BFA01904FF000080DE0254810F808204B
:104E800006F1F001BDF80400FFF79CFA019008F16B
:104E9000010000F0FF08B8F1030FEED32A4606F137
:104EA000F001BDF80400FFF739FB432304F11802B9
:104EB00029461848009700680AF0D0FE8146284627
:104EC00003F036FD00BF00BF03E000BF00BF4FF09E
:104ED000FF39A079FF2802DAA079401CA071A079DF
:104EE0000A2805DAA0794FF4FA6110FB01F001E01D
:104EF00044F620601FFA80FA0AF2F3104FF4FA71B8
:104F000090FBF1F0208100BF00BF4846BDE8FC8760
:104F10005C010020600100202DE9FE4F074600BF24
:104F200047B900BF5DA0FEF77BF900BF6FF00F002F
:104F3000BDE8FE8F00BF7C6A00BF3CB900BF5EA029
:104F4000FEF76EF900BF6FF00500F1E700BF00BF8C
:104F500000BF0121204600F0C5F802AB0322214624
:104F60003846FEF72DFF0646002E71D075680223E5
:104F7000392205F1F001BDF80800FFF705FA0290AB
:104F80003A8D05F1F001BDF80800FFF78FFA0290A5
:104F90000423322205F1F001BDF80800FFF7F4F90F
:104FA0000290E06902F09CFA83465A4605F1F0014E
:104FB000BDF80800FFF736FA02900423362205F107
:104FC000F001BDF80800FFF7DFF90290A06902F0D8
:104FD00087FA83465A4605F1F001BDF80800FFF74D
:104FE00021FA02900323372205F1F001BDF80800F1
:104FF000FFF7CAF902904FF000080DE0354810F8AD
:10500000082005F1F001BDF80800FFF7DBF9029078
:1050100008F1010000F0FF08B8F1030FEED33246AB
:1050200005F1F001BDF80800FFF778FA2A4843239C
:105030002A4A3146CDE90070294800680AF09CFEF2
:105040008146304603F074FC00BF00BF04E0FFE778
:1050500000BF00BF4FF0FF39A079FF2802DAA07926
:10506000401CA071A079062803DAA17901208840AC
:1050700000E03C2000EB4001C1EBC0104FF6FF7197
:1050800001EAC00A0AF2F3104FF4FA7190FBF1F052
:10509000208100BF00BF48464AE700006468637093
:1050A0005F73656C6563743A206E65746966202170
:1050B0003D204E554C4C0000646863705F73656C16
:1050C0006563743A206468637020213D204E554C1E
:1050D0004C0000005C010020701F0108741F0108D3
:1050E0006001002042798A4203D04171002282711E
:1050F0000281704770B5044600BF3CB900BF2FA0C5
:10510000FEF78EF800BF6FF00F0070BD00BF00BF4C
:1051100094F8310000F0010038B900BF2BA0FEF771
:105120007FF800BF6FF00F00EFE700BF656A00BFB8
:1051300000BF208DB0F5107F04DA00BF00BF4FF034
:10514000FF30E2E775B900BF00BF342002F0A2FBD8
:10515000054625B900BF00BF4FF0FF30D5E76562B7
:1051600000BF05E000BF00BF287908B1FEF700FFCF
:1051700034212846FBF7ADF800BF00BFFFF7AEF8BB
:1051800010B14FF0FF30C0E70120287194F83100D2
:10519000C0F3800028B902212846FFF7A3FF0020B2
:1051A000B3E72046FEF776FF06462EB12046FFF70E
:1051B000C7FD4FF0FF30A8E73046A6E76E6574697B
:1051C0006620213D204E554C4C0000006E657469F0
:1051D00066206973206E6F742075702C206F6C646C
:1051E000207374796C6520706F72743F000000004A
:1051F00010B504462046FFF7A3FD10BD014679B166
:10520000486A68B14A6A50790A2805D05079052859
:1052100002D05079042801D1012070470020FCE71A
:105220000020FAE770B505466C6A00BF00BF6079E0
:10523000012805D060790A2802D06079052815D1A7
:1052400000BF00BF2846FFF7E7FDA189628A881AE0
:1052500000EBD0710122B2EB610F07DCA189628AF9
:10526000881A00EBD071C1F34F01E18170BD70B5B8
:1052700005466C6A00BF00BF6079012808D06079DC
:105280000A2805D06079052802D06079042815D154
:1052900000BF00BF2846FFF78FFBA18A628A881AE9
:1052A00000EBD0710122B2EB610F07DCA18A628AA8
:1052B000881A00EBD071C1F34F01218270BD70B527
:1052C00005466C6A00BF00BF60790C2802D0607987
:1052D000062805D100BF00BF2846FEF7DBFE31E0FF
:1052E0006079012811D100BF00BFA079052803DC37
:1052F0002846FFF711FE25E000BF00BF2846FFF754
:105300001FFD2846FFF7F6FE1CE0607908280CD147
:1053100000BF00BFA079012803DC2846FEF7EEFCA1
:1053200010E02846FEF736FC0CE06079032809D12E
:10533000A079022803DA2846FFF7C0FB02E02846DE
:10534000FEF7A8FE70BD000070B504460D4600BF14
:1053500005F0030020B100BF05A0FDF761FF00BF0D
:1053600000BF2E46E06800683060E068066070BDEF
:105370006D656D705F667265653A206D656D207054
:10538000726F7065726C7920616C69676E6564001C
:1053900070B50546E868046874B12068E96808607B
:1053A00000BF04F0030020B100BF05A0FDF738FFE7
:1053B00000BF00BF204670BD00BF00BF0020FAE75D
:1053C0006D656D705F6D616C6C6F633A206D656DBE
:1053D000702070726F7065726C7920616C69676E95
:1053E0006564000070B50546002411E004EB44003C
:1053F000094901EBC000067D4EB104EB440001EB0E
:10540000C0008068A84202D1204600F04FF9641C19
:105410000A2CEBDB70BD0000ACE200202DE9FF5F41
:105420000646894617464FF00A0AD346D04600245E
:105430000A200390002002900190009000BF73E0CA
:1054400004EB4400724901EBC000057DB8F10A0F7E
:1054500004D11DB900BF00BFA04663E0002D61D09C
:1054600000BF012D06D0022D04DA00BF69A0FDF7B0
:10547000D7FE00BF00BFBEB104EB4401644A02EB9B
:10548000C1013068496888420ED13FB104EB440045
:10549000114601EBC0008068B84205D100BF00BFD3
:1054A000204604B0BDE8F09F012D28D104EB440054
:1054B000574951F8300080B104EB440001EBC000C3
:1054C000418A029881422DDB039404EB4400504949
:1054D00001EBC000408A029024E004EB44004C49F8
:1054E00001EBC000418A019881421BDBA24604EB1C
:1054F0004400474901EBC000408A019012E0022DB0
:1055000010DB04EB4400424901EBC000418A0098E3
:10551000814207DBA34604EB44003D4901EBC00098
:10552000408A0090601C04B20A2C89DB09F002005A
:1055300028B9B8F10A0F07D109F0010020B900BF5E
:1055400000BF4FF0FF30ACE7B8F10A0F02DA444673
:1055500000BF2FE0BBF10A0F0FDA5C4600BF00BFAF
:1055600000BF04EB44002A4951F8300020B100BFCD
:1055700038A0FDF755FE00BF10E0BAF10A0F02DABD
:10558000544600BF0AE003980A2802DA039C00BFD1
:1055900004E000BF00BF4FF0FF3082E700BF0A2CDD
:1055A00004DB00BF31A0FDF73BFE00BF00BF20467B
:1055B00000F07CF800BF0A2C04DB00BF2BA0FDF735
:1055C0002FFE00BF00BF00BF04EB4400104901EBF9
:1055D000C000007D20B100BF29A0FDF721FE00BF63
:1055E00000BF36B104EB4401094A02EBC101306847
:1055F0004860002004EB4401054A02EBC1014882E7
:1056000004EB4400114601EBC0008760204648E7E8
:10561000ACE200207374617465203D3D2045544820
:105620004152505F53544154455F50454E44494E9A
:1056300047207C7C207374617465203E3D20455476
:10564000484152505F53544154455F535441424C7A
:10565000450000006172705F7461626C655B695D3A
:105660002E71203D3D204E554C4C000069203C20C1
:105670004152505F5441424C455F53495A450000E6
:105680006172705F7461626C655B695D2E737461D9
:105690007465203D3D204554484152505F5354416C
:1056A00054455F454D5054590000000010B5044664
:1056B00004EB4400194951F8300070B100BF00BF3D
:1056C00004EB4401154A52F8310003F031F900208F
:1056D00004EB4401114A42F83100002004EB44017C
:1056E0000E4A02EBC101087504EB440102EBC10153
:1056F000488204EB440102EBC101886004EB4401E1
:1057000002EBC101486004EB4400114601EBC0000C
:1057100003490A68C2608988018210BDACE200209A
:105720007E1F0108F0B587B007460D4600BF35B9AA
:1057300000BF35A0FDF774FD00BF07B0F0BD00BF8E
:105740007C682088B0F5807F08D12079062805D1B3
:105750006079042802D16088082805D000BF00BF06
:10576000384603F0E5F8E8E7D4F80E000690A069A3
:105770000590686808B9002607E0059869688842BE
:1057800001D1012000E0002006460EB1012000E01A
:105790000220034604F1080206A9284600F0D0FBC7
:1057A000E088B0F5807F03D0B0F5007F22D11AE009
:1057B00000BF00BF86B1022206AB04F10800291D1C
:1057C000CDE90232CDE9001005F12A030246263167
:1057D000284600F093FA05E0686808B900BF01E0C8
:1057E00000BF00BF09E000BF00BF06A92846FEF7C2
:1057F000A9F902E000BF00BF00BF00BF384603F0B8
:1058000097F800BF99E700006E6574696620213D36
:10581000204E554C4C0000002DE9FE4304460F4637
:105820001546A94600BF24B900BF57A0FDF7F8FCF4
:1058300000BF00BF00BF27B900BF57A0FDF7F0FCB5
:1058400000BF00BF00BF25B900BF56A0FDF7E8FCB0
:1058500000BF00BF2146286800F0D9FE10B1DFF874
:10586000548186E0287800F0F000E02816D101206D
:105870008DF8040000208DF805005E208DF80600EC
:10588000687800F07F008DF80700A8788DF8080090
:10589000E8788DF809000DF1040869E02868A1682E
:1058A0000840D4E90112114088420ED0288880B205
:1058B0004FF6A961884208D0E06810B104F10C09E4
:1058C00003E06FF00300BDE8FE833B48007800EB87
:1058D00040003A4901EBC000007D02281BDB36483E
:1058E000007800EB400001EBC0008068A04212D1BC
:1058F0003149097801EB4101304A02EBC101D9F885
:1059000000004968884206D12B4802783946204673
:1059100000F056F8D7E7002622E006EB46002749BC
:1059200001EBC000007D022818DB06EB460001EB0E
:10593000C0008068A04211D106EB46011F4A02EB6D
:10594000C101D9F800004968884207D11A48067099
:1059500032463946204600F033F8B4E7701CC6B230
:105960000A2EDADB3A464946204600F0A9F8AAE7B3
:1059700000BF4FF40060434604F12A02394600900C
:10598000204600F0C9FB9EE76E6574696620213DE4
:10599000204E554C4C0000007120213D204E554CAE
:1059A0004C00000069706164647220213D204E55F6
:1059B0004C4C0000781F01086C010020ACE2002074
:1059C000F8B505460E46144600BF04EB44002F49C7
:1059D00001EBC000007D022804DA00BF2CA0FDF717
:1059E0001FFC00BF00BF04EB4400284901EBC000CE
:1059F000007D022839D104EB440001EBC000408A4D
:105A0000B0F58E7F11DD04EB44000A4602EBC000C6
:105A1000011D284600F0FEF938BB032004EB4401C9
:105A20001A4A02EBC10108751FE004EB4400174954
:105A300001EBC000408AB0F5877F16DB04EB440021
:105A40000B4603EBC00000F10C0204EB440003EB37
:105A5000C000011D284600F0EBF930B9032004EB2B
:105A600044010A4A02EBC10108754FF4006000903E
:105A700004EB4400054901EBC00000F10C0305F103
:105A80002A023146284600F047FBF8BDACE2002070
:105A90006172705F7461626C655B6172705F696492
:105AA000785D2E7374617465203E3D2045544841F5
:105AB00052505F53544154455F535441424C45004A
:105AC0002DE9FE4F81460F46164609F12A0A4FF08E
:105AD000FF300290002001904946386800F097FDA1
